{"abi":[{"type":"constructor","inputs":[{"name":"__avsDirectory","type":"address","internalType":"contract IAVSDirectory"},{"name":"__rewardsCoordinator","type":"address","internalType":"contract IRewardsCoordinator"},{"name":"__registryCoordinator","type":"address","internalType":"contract IRegistryCoordinator"},{"name":"__stakeRegistry","type":"address","internalType":"contract IStakeRegistry"}],"stateMutability":"nonpayable"},{"type":"receive","stateMutability":"payable"},{"type":"function","name":"alignedAggregator","inputs":[],"outputs":[{"name":"","type":"address","internalType":"address"}],"stateMutability":"view"},{"type":"function","name":"avsDirectory","inputs":[],"outputs":[{"name":"","type":"address","internalType":"address"}],"stateMutability":"view"},{"type":"function","name":"balanceOf","inputs":[{"name":"account","type":"address","internalType":"address"}],"outputs":[{"name":"","type":"uint256","internalType":"uint256"}],"stateMutability":"view"},{"type":"function","name":"batchersBalances","inputs":[{"name":"","type":"address","internalType":"address"}],"outputs":[{"name":"","type":"uint256","internalType":"uint256"}],"stateMutability":"view"},{"type":"function","name":"batchesState","inputs":[{"name":"","type":"bytes32","internalType":"bytes32"}],"outputs":[{"name":"taskCreatedBlock","type":"uint32","internalType":"uint32"},{"name":"responded","type":"bool","internalType":"bool"},{"name":"respondToTaskFeeLimit","type":"uint256","internalType":"uint256"}],"stateMutability":"view"},{"type":"function","name":"blsApkRegistry","inputs":[],"outputs":[{"name":"","type":"address","internalType":"contract IBLSApkRegistry"}],"stateMutability":"view"},{"type":"function","name":"checkPublicInput","inputs":[{"name":"publicInput","type":"bytes","internalType":"bytes"},{"name":"hash","type":"bytes32","internalType":"bytes32"}],"outputs":[{"name":"","type":"bool","internalType":"bool"}],"stateMutability":"pure"},{"type":"function","name":"checkSignatures","inputs":[{"name":"msgHash","type":"bytes32","internalType":"bytes32"},{"name":"referenceBlockNumber","type":"uint32","internalType":"uint32"},{"name":"params","type":"tuple","internalType":"struct IBLSSignatureChecker.NonSignerStakesAndSignature","components":[{"name":"nonSignerQuorumBitmapIndices","type":"uint32[]","internalType":"uint32[]"},{"name":"nonSignerPubkeys","type":"tuple[]","internalType":"struct BN254.G1Point[]","components":[{"name":"X","type":"uint256","internalType":"uint256"},{"name":"Y","type":"uint256","internalType":"uint256"}]},{"name":"quorumApks","type":"tuple[]","internalType":"struct BN254.G1Point[]","components":[{"name":"X","type":"uint256","internalType":"uint256"},{"name":"Y","type":"uint256","internalType":"uint256"}]},{"name":"apkG2","type":"tuple","internalType":"struct BN254.G2Point","components":[{"name":"X","type":"uint256[2]","internalType":"uint256[2]"},{"name":"Y","type":"uint256[2]","internalType":"uint256[2]"}]},{"name":"sigma","type":"tuple","internalType":"struct BN254.G1Point","components":[{"name":"X","type":"uint256","internalType":"uint256"},{"name":"Y","type":"uint256","internalType":"uint256"}]},{"name":"quorumApkIndices","type":"uint32[]","internalType":"uint32[]"},{"name":"totalStakeIndices","type":"uint32[]","internalType":"uint32[]"},{"name":"nonSignerStakeIndices","type":"uint32[][]","internalType":"uint32[][]"}]}],"outputs":[{"name":"","type":"tuple","internalType":"struct IBLSSignatureChecker.QuorumStakeTotals","components":[{"name":"signedStakeForQuorum","type":"uint96[]","internalType":"uint96[]"},{"name":"totalStakeForQuorum","type":"uint96[]","internalType":"uint96[]"}]},{"name":"","type":"bytes32","internalType":"bytes32"}],"stateMutability":"view"},{"type":"function","name":"createAVSRewardsSubmission","inputs":[{"name":"rewardsSubmissions","type":"tuple[]","internalType":"struct IRewardsCoordinator.RewardsSubmission[]","components":[{"name":"strategiesAndMultipliers","type":"tuple[]","internalType":"struct IRewardsCoordinator.StrategyAndMultiplier[]","components":[{"name":"strategy","type":"address","internalType":"contract IStrategy"},{"name":"multiplier","type":"uint96","internalType":"uint96"}]},{"name":"token","type":"address","internalType":"contract IERC20"},{"name":"amount","type":"uint256","internalType":"uint256"},{"name":"startTimestamp","type":"uint32","internalType":"uint32"},{"name":"duration","type":"uint32","internalType":"uint32"}]}],"outputs":[],"stateMutability":"nonpayable"},{"type":"function","name":"createNewTask","inputs":[{"name":"batchMerkleRoot","type":"bytes32","internalType":"bytes32"},{"name":"batchDataPointer","type":"string","internalType":"string"},{"name":"respondToTaskFeeLimit","type":"uint256","internalType":"uint256"}],"outputs":[],"stateMutability":"payable"},{"type":"function","name":"delegation","inputs":[],"outputs":[{"name":"","type":"address","internalType":"contract IDelegationManager"}],"stateMutability":"view"},{"type":"function","name":"depositToBatcher","inputs":[{"name":"account","type":"address","internalType":"address"}],"outputs":[],"stateMutability":"payable"},{"type":"function","name":"deregisterOperatorFromAVS","inputs":[{"name":"operator","type":"address","internalType":"address"}],"outputs":[],"stateMutability":"nonpayable"},{"type":"function","name":"disableVerifier","inputs":[{"name":"verifierIdx","type":"uint8","internalType":"uint8"}],"outputs":[],"stateMutability":"nonpayable"},{"type":"function","name":"disabledVerifiers","inputs":[],"outputs":[{"name":"","type":"uint256","internalType":"uint256"}],"stateMutability":"view"},{"type":"function","name":"enableVerifier","inputs":[{"name":"verifierIdx","type":"uint8","internalType":"uint8"}],"outputs":[],"stateMutability":"nonpayable"},{"type":"function","name":"getOperatorRestakedStrategies","inputs":[{"name":"operator","type":"address","internalType":"address"}],"outputs":[{"name":"","type":"address[]","internalType":"address[]"}],"stateMutability":"view"},{"type":"function","name":"getRestakeableStrategies","inputs":[],"outputs":[{"name":"","type":"address[]","internalType":"address[]"}],"stateMutability":"view"},{"type":"function","name":"initialize","inputs":[{"name":"_initialOwner","type":"address","internalType":"address"},{"name":"_rewardsInitiator","type":"address","internalType":"address"},{"name":"_alignedAggregator","type":"address","internalType":"address"},{"name":"_pauserRegistry","type":"address","internalType":"contract IPauserRegistry"},{"name":"_initialPausedStatus","type":"uint256","internalType":"uint256"}],"outputs":[],"stateMutability":"nonpayable"},{"type":"function","name":"isVerifierDisabled","inputs":[{"name":"verifierIdx","type":"uint8","internalType":"uint8"}],"outputs":[{"name":"","type":"bool","internalType":"bool"}],"stateMutability":"view"},{"type":"function","name":"owner","inputs":[],"outputs":[{"name":"","type":"address","internalType":"address"}],"stateMutability":"view"},{"type":"function","name":"pause","inputs":[{"name":"newPausedStatus","type":"uint256","internalType":"uint256"}],"outputs":[],"stateMutability":"nonpayable"},{"type":"function","name":"pauseAll","inputs":[],"outputs":[],"stateMutability":"nonpayable"},{"type":"function","name":"paused","inputs":[{"name":"index","type":"uint8","internalType":"uint8"}],"outputs":[{"name":"","type":"bool","internalType":"bool"}],"stateMutability":"view"},{"type":"function","name":"paused","inputs":[],"outputs":[{"name":"","type":"uint256","internalType":"uint256"}],"stateMutability":"view"},{"type":"function","name":"pauserRegistry","inputs":[],"outputs":[{"name":"","type":"address","internalType":"contract IPauserRegistry"}],"stateMutability":"view"},{"type":"function","name":"registerOperatorToAVS","inputs":[{"name":"operator","type":"address","internalType":"address"},{"name":"operatorSignature","type":"tuple","internalType":"struct ISignatureUtils.SignatureWithSaltAndExpiry","components":[{"name":"signature","type":"bytes","internalType":"bytes"},{"name":"salt","type":"bytes32","internalType":"bytes32"},{"name":"expiry","type":"uint256","internalType":"uint256"}]}],"outputs":[],"stateMutability":"nonpayable"},{"type":"function","name":"registryCoordinator","inputs":[],"outputs":[{"name":"","type":"address","internalType":"contract IRegistryCoordinator"}],"stateMutability":"view"},{"type":"function","name":"renounceOwnership","inputs":[],"outputs":[],"stateMutability":"nonpayable"},{"type":"function","name":"respondToTaskV2","inputs":[{"name":"batchMerkleRoot","type":"bytes32","internalType":"bytes32"},{"name":"senderAddress","type":"address","internalType":"address"},{"name":"nonSignerStakesAndSignature","type":"tuple","internalType":"struct IBLSSignatureChecker.NonSignerStakesAndSignature","components":[{"name":"nonSignerQuorumBitmapIndices","type":"uint32[]","internalType":"uint32[]"},{"name":"nonSignerPubkeys","type":"tuple[]","internalType":"struct BN254.G1Point[]","components":[{"name":"X","type":"uint256","internalType":"uint256"},{"name":"Y","type":"uint256","internalType":"uint256"}]},{"name":"quorumApks","type":"tuple[]","internalType":"struct BN254.G1Point[]","components":[{"name":"X","type":"uint256","internalType":"uint256"},{"name":"Y","type":"uint256","internalType":"uint256"}]},{"name":"apkG2","type":"tuple","internalType":"struct BN254.G2Point","components":[{"name":"X","type":"uint256[2]","internalType":"uint256[2]"},{"name":"Y","type":"uint256[2]","internalType":"uint256[2]"}]},{"name":"sigma","type":"tuple","internalType":"struct BN254.G1Point","components":[{"name":"X","type":"uint256","internalType":"uint256"},{"name":"Y","type":"uint256","internalType":"uint256"}]},{"name":"quorumApkIndices","type":"uint32[]","internalType":"uint32[]"},{"name":"totalStakeIndices","type":"uint32[]","internalType":"uint32[]"},{"name":"nonSignerStakeIndices","type":"uint32[][]","internalType":"uint32[][]"}]}],"outputs":[],"stateMutability":"nonpayable"},{"type":"function","name":"rewardsInitiator","inputs":[],"outputs":[{"name":"","type":"address","internalType":"address"}],"stateMutability":"view"},{"type":"function","name":"setAggregator","inputs":[{"name":"_alignedAggregator","type":"address","internalType":"address"}],"outputs":[],"stateMutability":"nonpayable"},{"type":"function","name":"setDisabledVerifiers","inputs":[{"name":"bitmap","type":"uint256","internalType":"uint256"}],"outputs":[],"stateMutability":"nonpayable"},{"type":"function","name":"setPauserRegistry","inputs":[{"name":"newPauserRegistry","type":"address","internalType":"contract IPauserRegistry"}],"outputs":[],"stateMutability":"nonpayable"},{"type":"function","name":"setRewardsInitiator","inputs":[{"name":"newRewardsInitiator","type":"address","internalType":"address"}],"outputs":[],"stateMutability":"nonpayable"},{"type":"function","name":"setStaleStakesForbidden","inputs":[{"name":"value","type":"bool","internalType":"bool"}],"outputs":[],"stateMutability":"nonpayable"},{"type":"function","name":"stakeRegistry","inputs":[],"outputs":[{"name":"","type":"address","internalType":"contract IStakeRegistry"}],"stateMutability":"view"},{"type":"function","name":"staleStakesForbidden","inputs":[],"outputs":[{"name":"","type":"bool","internalType":"bool"}],"stateMutability":"view"},{"type":"function","name":"transferOwnership","inputs":[{"name":"newOwner","type":"address","internalType":"address"}],"outputs":[],"stateMutability":"nonpayable"},{"type":"function","name":"trySignatureAndApkVerification","inputs":[{"name":"msgHash","type":"bytes32","internalType":"bytes32"},{"name":"apk","type":"tuple","internalType":"struct BN254.G1Point","components":[{"name":"X","type":"uint256","internalType":"uint256"},{"name":"Y","type":"uint256","internalType":"uint256"}]},{"name":"apkG2","type":"tuple","internalType":"struct BN254.G2Point","components":[{"name":"X","type":"uint256[2]","internalType":"uint256[2]"},{"name":"Y","type":"uint256[2]","internalType":"uint256[2]"}]},{"name":"sigma","type":"tuple","internalType":"struct BN254.G1Point","components":[{"name":"X","type":"uint256","internalType":"uint256"},{"name":"Y","type":"uint256","internalType":"uint256"}]}],"outputs":[{"name":"pairingSuccessful","type":"bool","internalType":"bool"},{"name":"siganatureIsValid","type":"bool","internalType":"bool"}],"stateMutability":"view"},{"type":"function","name":"unpause","inputs":[{"name":"newPausedStatus","type":"uint256","internalType":"uint256"}],"outputs":[],"stateMutability":"nonpayable"},{"type":"function","name":"updateAVSMetadataURI","inputs":[{"name":"_metadataURI","type":"string","internalType":"string"}],"outputs":[],"stateMutability":"nonpayable"},{"type":"function","name":"verifyBatchInclusion","inputs":[{"name":"proofCommitment","type":"bytes32","internalType":"bytes32"},{"name":"pubInputCommitment","type":"bytes32","internalType":"bytes32"},{"name":"provingSystemAuxDataCommitment","type":"bytes32","internalType":"bytes32"},{"name":"proofGeneratorAddr","type":"bytes20","internalType":"bytes20"},{"name":"batchMerkleRoot","type":"bytes32","internalType":"bytes32"},{"name":"merkleProof","type":"bytes","internalType":"bytes"},{"name":"verificationDataBatchIndex","type":"uint256","internalType":"uint256"},{"name":"senderAddress","type":"address","internalType":"address"}],"outputs":[{"name":"","type":"bool","internalType":"bool"}],"stateMutability":"view"},{"type":"function","name":"verifyBatchInclusion","inputs":[{"name":"proofCommitment","type":"bytes32","internalType":"bytes32"},{"name":"pubInputCommitment","type":"bytes32","internalType":"bytes32"},{"name":"provingSystemAuxDataCommitment","type":"bytes32","internalType":"bytes32"},{"name":"proofGeneratorAddr","type":"bytes20","internalType":"bytes20"},{"name":"batchMerkleRoot","type":"bytes32","internalType":"bytes32"},{"name":"merkleProof","type":"bytes","internalType":"bytes"},{"name":"verificationDataBatchIndex","type":"uint256","internalType":"uint256"}],"outputs":[{"name":"","type":"bool","internalType":"bool"}],"stateMutability":"view"},{"type":"function","name":"withdraw","inputs":[{"name":"amount","type":"uint256","internalType":"uint256"}],"outputs":[],"stateMutability":"nonpayable"},{"type":"event","name":"BatchVerified","inputs":[{"name":"batchMerkleRoot","type":"bytes32","indexed":true,"internalType":"bytes32"},{"name":"senderAddress","type":"address","indexed":false,"internalType":"address"}],"anonymous":false},{"type":"event","name":"BatcherBalanceUpdated","inputs":[{"name":"batcher","type":"address","indexed":true,"internalType":"address"},{"name":"newBalance","type":"uint256","indexed":false,"internalType":"uint256"}],"anonymous":false},{"type":"event","name":"Initialized","inputs":[{"name":"version","type":"uint8","indexed":false,"internalType":"uint8"}],"anonymous":false},{"type":"event","name":"NewBatchV2","inputs":[{"name":"batchMerkleRoot","type":"bytes32","indexed":true,"internalType":"bytes32"},{"name":"senderAddress","type":"address","indexed":false,"internalType":"address"},{"name":"taskCreatedBlock","type":"uint32","indexed":false,"internalType":"uint32"},{"name":"batchDataPointer","type":"string","indexed":false,"internalType":"string"}],"anonymous":false},{"type":"event","name":"NewBatchV3","inputs":[{"name":"batchMerkleRoot","type":"bytes32","indexed":true,"internalType":"bytes32"},{"name":"senderAddress","type":"address","indexed":false,"internalType":"address"},{"name":"taskCreatedBlock","type":"uint32","indexed":false,"internalType":"uint32"},{"name":"batchDataPointer","type":"string","indexed":false,"internalType":"string"},{"name":"respondToTaskFeeLimit","type":"uint256","indexed":false,"internalType":"uint256"}],"anonymous":false},{"type":"event","name":"OwnershipTransferred","inputs":[{"name":"previousOwner","type":"address","indexed":true,"internalType":"address"},{"name":"newOwner","type":"address","indexed":true,"internalType":"address"}],"anonymous":false},{"type":"event","name":"Paused","inputs":[{"name":"account","type":"address","indexed":true,"internalType":"address"},{"name":"newPausedStatus","type":"uint256","indexed":false,"internalType":"uint256"}],"anonymous":false},{"type":"event","name":"PauserRegistrySet","inputs":[{"name":"pauserRegistry","type":"address","indexed":false,"internalType":"contract IPauserRegistry"},{"name":"newPauserRegistry","type":"address","indexed":false,"internalType":"contract IPauserRegistry"}],"anonymous":false},{"type":"event","name":"RewardsInitiatorUpdated","inputs":[{"name":"prevRewardsInitiator","type":"address","indexed":false,"internalType":"address"},{"name":"newRewardsInitiator","type":"address","indexed":false,"internalType":"address"}],"anonymous":false},{"type":"event","name":"StaleStakesForbiddenUpdate","inputs":[{"name":"value","type":"bool","indexed":false,"internalType":"bool"}],"anonymous":false},{"type":"event","name":"Unpaused","inputs":[{"name":"account","type":"address","indexed":true,"internalType":"address"},{"name":"newPausedStatus","type":"uint256","indexed":false,"internalType":"uint256"}],"anonymous":false},{"type":"event","name":"VerifierDisabled","inputs":[{"name":"verifierIdx","type":"uint8","indexed":true,"internalType":"uint8"}],"anonymous":false},{"type":"event","name":"VerifierEnabled","inputs":[{"name":"verifierIdx","type":"uint8","indexed":true,"internalType":"uint8"}],"anonymous":false},{"type":"error","name":"BatchAlreadyResponded","inputs":[{"name":"batchIdentifierHash","type":"bytes32","internalType":"bytes32"}]},{"type":"error","name":"BatchAlreadySubmitted","inputs":[{"name":"batchIdentifierHash","type":"bytes32","internalType":"bytes32"}]},{"type":"error","name":"BatchDoesNotExist","inputs":[{"name":"batchIdentifierHash","type":"bytes32","internalType":"bytes32"}]},{"type":"error","name":"InsufficientFunds","inputs":[{"name":"batcher","type":"address","internalType":"address"},{"name":"required","type":"uint256","internalType":"uint256"},{"name":"available","type":"uint256","internalType":"uint256"}]},{"type":"error","name":"InvalidAddress","inputs":[{"name":"param","type":"string","internalType":"string"}]},{"type":"error","name":"InvalidDepositAmount","inputs":[{"name":"amount","type":"uint256","internalType":"uint256"}]},{"type":"error","name":"InvalidQuorumThreshold","inputs":[{"name":"signedStake","type":"uint256","internalType":"uint256"},{"name":"requiredStake","type":"uint256","internalType":"uint256"}]},{"type":"error","name":"SenderIsNotAggregator","inputs":[{"name":"sender","type":"address","internalType":"address"},{"name":"alignedAggregator","type":"address","internalType":"address"}]}],"bytecode":{"object":"0x61018080604052346103325760808161521e803803809161002082856103c5565b833981010312610332578051906001600160a01b0382168083036103325760208201516001600160a01b03811691908281036103325760408401516001600160a01b0381169490919085830361033257606061007c91016103fc565b9560805260a0528060c0528460e052610093610410565b61010052604051636830483560e01b8152602081600481875afa90811561033e575f9161038b575b5061012052604051632efa2ca360e11b8152602081600481875afa90811561033e575f91610349575b50610140526101205160405163df5cf72360e01b815290602090829060049082906001600160a01b03165afa90811561033e575f916102f8575b5061016052156102c357156102885715610242576001600160a01b03161561020c57610148610410565b604051614d6890816104b6823960805181818161107201528181611328015281816113e90152613587015260a05181613ad2015260c0518181816112f8015281816124b2015281816135570152613728015260e05181818161254e0152613774015261010051818181610a3e015281816110b601528181612d4f01528181612e38015261336901526101205181818161102e015281816130e90152613231015261014051818181610fea0152613026015261016051818181611a260152612f470152f35b604051630b0f5aa160e11b815260206004820152600d60248201526c7374616b65526567697374727960981b6044820152606490fd5b604051630b0f5aa160e11b815260206004820152601360248201527f7265676973747279436f6f7264696e61746f72000000000000000000000000006044820152606490fd5b604051630b0f5aa160e11b81526020600482015260126024820152713932bbb0b93239a1b7b7b93234b730ba37b960711b6044820152606490fd5b604051630b0f5aa160e11b815260206004820152600c60248201526b6176734469726563746f727960a01b6044820152606490fd5b90506020813d602011610336575b81610313602093836103c5565b8101031261033257516001600160a01b0381168103610332575f61011e565b5f80fd5b3d9150610306565b6040513d5f823e3d90fd5b90506020813d602011610383575b81610364602093836103c5565b8101031261033257516001600160a01b0381168103610332575f6100e4565b3d9150610357565b90506020813d6020116103bd575b816103a6602093836103c5565b81010312610332576103b7906103fc565b5f6100bb565b3d9150610399565b601f909101601f19168101906001600160401b038211908210176103e857604052565b634e487b7160e01b5f52604160045260245ffd5b51906001600160a01b038216820361033257565b5f5460ff8160081c166104605760ff8082161061042a5750565b60ff90811916175f557f7f26b83ff96e1f2b6a682f133852f6798a09c465da95921460cefb3847402498602060405160ff8152a1565b60405162461bcd60e51b815260206004820152602760248201527f496e697469616c697a61626c653a20636f6e747261637420697320696e697469604482015266616c697a696e6760c81b6064820152608490fdfe60806040526004361015610022575b3615610018575f80fd5b610020613ef5565b005b5f3560e01c806306045a91146102ec57806310d67a2f146102e7578063136439dd146102e2578063137122b5146102dd578063171f1d5b146102d857806318daeeaf146102d35780632e1a7d4d146102ce57806333cfb7b7146102c95780633bc28c8c146102c4578063416c7e5e146102bf5780634223d551146102ba5780634a5bf632146102b55780634ae07c37146102b0578063595c6a67146102ab5780635ac86ab7146102a65780635c975abb146102a15780635df459461461029c57806368304835146102975780636b3aa72e146102925780636d14a9871461028d57806370a0823114610238578063715018a614610288578063886f1195146102835780638da5cb5b1461027e57806395c6d604146102795780639926ee7d14610274578063a364f4da1461026f578063a98fb3551461026a578063ab21739a14610265578063b099627e14610260578063b753645e1461025b578063b98d090814610256578063d66eaabd14610251578063df5cf7231461024c578063e481af9d14610247578063ea5ca34b14610242578063f2fde38b1461023d578063f474b52014610238578063f7013ef614610233578063f9120af61461022e578063fa534dc014610229578063fabc1cbc14610224578063fc299dee1461021f578063fce36c7d1461021a5763fd4c3b7c0361000e57611f10565b611eb5565b611e8d565b611d7f565b611c81565b611c3a565b611b1e565b6110e5565b611a8d565b611a70565b611a55565b611a11565b611838565b611816565b6117f5565b6117ac565b611457565b61139d565b6112d4565b611249565b6111f8565b6111a3565b61117b565b611120565b6110a1565b61105d565b611019565b610fd5565b610fb8565b610f85565b610eff565b610e76565b610b7c565b610b3f565b610a0c565b6109d5565b6109a1565b610887565b61082d565b6107c5565b61068d565b610548565b6104a6565b61042b565b606435906001600160601b03198216820361030857565b5f80fd5b634e487b7160e01b5f52604160045260245ffd5b604081019081106001600160401b0382111761033b57604052565b61030c565b606081019081106001600160401b0382111761033b57604052565b90601f801991011681019081106001600160401b0382111761033b57604052565b6040519061038c6101008361035b565b565b6040519061038c60408361035b565b9061038c604051928361035b565b6001600160401b03811161033b57601f01601f191660200190565b9291926103d2826103ab565b916103e0604051938461035b565b829481845281830111610308578281602093845f960137010152565b9080601f8301121561030857816020610417933591016103c6565b90565b6001600160a01b0381160361030857565b34610308576101003660031901126103085760243560443560043561044e6102f1565b9260a435926084356001600160401b038511610308576104a2956104796104909636906004016103fc565b9260c4359460e4359661048b8861041a565b611fb5565b60405190151581529081906020820190565b0390f35b3461030857602036600319011261030857600480356104c48161041a565b60fb5460405163755b36bd60e11b81529260209184919082906001600160a01b03165afa918215610543576100209261050f915f91610514575b506001600160a01b031633146120de565b613ff6565b610536915060203d60201161053c575b61052e818361035b565b8101906120be565b5f6104fe565b503d610524565b6120d3565b346103085760203660031901126103085760043560fb5460405163237dfb4760e11b815233600482015290602090829060249082906001600160a01b03165afa80156105435761059f915f91610653575b50612152565b60fc54818116036105e8578060fc557fab40a374bc51de372200a8bc981af8c9ecdc08dfdaef0bb6e09f88f3c616ef3d604051806105e33394829190602083019252565b0390a2005b60405162461bcd60e51b815260206004820152603860248201527f5061757361626c652e70617573653a20696e76616c696420617474656d70742060448201527f746f20756e70617573652066756e6374696f6e616c69747900000000000000006064820152608490fd5b610675915060203d60201161067b575b61066d818361035b565b81019061213d565b5f610599565b503d610663565b60ff81160361030857565b346103085760203660031901126103085760206004356106ac81610682565b60cc54600160ff60405193161b1615158152f35b60409060e319011261030857604051906106d982610320565b60e4358252610104356020830152565b91908260409103126103085760405161070181610320565b6020808294803584520135910152565b9080601f83011215610308576040519161072c60408461035b565b82906040810192831161030857905b8282106107485750505090565b813581526020918201910161073b565b9060806063198301126103085760405161077181610320565b602061078c8294610783816064610711565b845260a4610711565b910152565b919060808382031261030857602061078c604051926107af84610320565b604084966107bd8382610711565b865201610711565b34610308576101203660031901126103085760043560403660231901126103085761081d60409182516107f781610320565b6024358152604435602082015261080d36610758565b90610817366106c0565b926121ed565b8251911515825215156020820152f35b346103085760203660031901126103085760ff60043561084c81610682565b610854614565565b166001811b1960cc541660cc557f5f52704e8e0190647930ccde0e43e14e89902d7d8c49c5f9e2544029f45ec12a5f80a2005b34610308576020366003190112610308576004356108b26108ac60088060fc54161490565b15611f69565b335f5260ca6020528060405f20541061092b57335f90815260ca6020526040812090918291829182916108e68282546122fa565b9055335f81815260ca60209081526040918290205491519182525f516020614cf35f395f51905f5291a2818115610922575b3390f11561054357005b506108fc610918565b335f90815260ca6020526040902061095c91905b54632e2a182f60e11b5f5233600452602491909152604452606490565b5ffd5b60206040818301928281528451809452019201905f5b8181106109825750505090565b82516001600160a01b0316845260209384019390920191600101610975565b34610308576020366003190112610308576104a26109c96004356109c48161041a565b612493565b6040519182918261095f565b34610308576020366003190112610308576100206004356109f58161041a565b6109fd614565565b61465b565b8015150361030857565b3461030857602036600319011261030857600435610a2981610a02565b604051638da5cb5b60e01b81526020816004817f00000000000000000000000000000000000000000000000000000000000000006001600160a01b03165afa908115610543575f91610b20575b506001600160a01b03163303610a8f57610020906146b9565b60405162461bcd60e51b815260206004820152605c60248201527f424c535369676e6174757265436865636b65722e6f6e6c79436f6f7264696e6160448201527f746f724f776e65723a2063616c6c6572206973206e6f7420746865206f776e6560648201527f72206f6620746865207265676973747279436f6f7264696e61746f7200000000608482015260a490fd5b610b39915060203d60201161053c5761052e818361035b565b5f610a76565b602036600319011261030857610020600435610b5a8161041a565b610b6b60108060fc54161415611f69565b34906146f7565b5f91031261030857565b34610308575f3660031901126103085760cb546040516001600160a01b039091168152602090f35b6024359063ffffffff8216820361030857565b359063ffffffff8216820361030857565b6001600160401b03811161033b5760051b60200190565b9080601f83011215610308578135610bf681610bc8565b92610c04604051948561035b565b81845260208085019260051b82010192831161030857602001905b828210610c2c5750505090565b60208091610c3984610bb7565b815201910190610c1f565b81601f82011215610308578035610c5a81610bc8565b92610c68604051948561035b565b81845260208085019260061b8401019281841161030857602001915b838310610c92575050505090565b6020604091610ca184866106e9565b815201920191610c84565b9080601f83011215610308578135610cc381610bc8565b92610cd1604051948561035b565b81845260208085019260051b820101918383116103085760208201905b838210610cfd57505050505090565b81356001600160401b03811161030857602091610d1f87848094880101610bdf565b815201910190610cee565b9190916101808184031261030857610d4061037c565b9281356001600160401b0381116103085781610d5d918401610bdf565b845260208201356001600160401b0381116103085781610d7e918401610c44565b602085015260408201356001600160401b0381116103085781610da2918401610c44565b6040850152610db48160608401610791565b6060850152610dc68160e084016106e9565b60808501526101208201356001600160401b0381116103085781610deb918401610bdf565b60a08501526101408201356001600160401b0381116103085781610e10918401610bdf565b60c08501526101608201356001600160401b03811161030857610e339201610cac565b60e0830152565b90602080835192838152019201905f5b818110610e575750505090565b82516001600160601b0316845260209384019390920191600101610e4a565b3461030857606036600319011261030857600435610e92610ba4565b90604435906001600160401b03821161030857610ef592610eba610ec0933690600401610d2a565b91612c68565b604051928392604084526020610ee182516040808801526080870190610e3a565b910151848203603f19016060860152610e3a565b9060208301520390f35b34610308575f3660031901126103085760fb5460405163237dfb4760e11b815233600482015290602090829060249082906001600160a01b03165afa801561054357610f51915f916106535750612152565b5f1960fc556040515f1981527fab40a374bc51de372200a8bc981af8c9ecdc08dfdaef0bb6e09f88f3c616ef3d60203392a2005b34610308576020366003190112610308576020600160ff600435610fa881610682565b161b8060fc541614604051908152f35b34610308575f36600319011261030857602060fc54604051908152f35b34610308575f366003190112610308576040517f00000000000000000000000000000000000000000000000000000000000000006001600160a01b03168152602090f35b34610308575f366003190112610308576040517f00000000000000000000000000000000000000000000000000000000000000006001600160a01b03168152602090f35b34610308575f366003190112610308576040517f00000000000000000000000000000000000000000000000000000000000000006001600160a01b03168152602090f35b34610308575f366003190112610308576040517f00000000000000000000000000000000000000000000000000000000000000006001600160a01b03168152602090f35b34610308576020366003190112610308576004356111028161041a565b60018060a01b03165f5260ca602052602060405f2054604051908152f35b34610308575f36600319011261030857611138614565565b603380546001600160a01b031981169091555f906001600160a01b03167f8be0079c531659141344cd1fd0a4f28419497f9722a3daafe3b4186f6b6457e08280a3005b34610308575f3660031901126103085760fb546040516001600160a01b039091168152602090f35b34610308575f366003190112610308576033546040516001600160a01b039091168152602090f35b9181601f84011215610308578235916001600160401b038311610308576020838186019501011161030857565b34610308576040366003190112610308576004356001600160401b0381116103085761123a61122d60209236906004016111cb565b91906024359236916103c6565b82815191012014604051908152f35b34610308576040366003190112610308576004356112668161041a565b602435906001600160401b0382116103085760606003198336030112610308576040519061129382610340565b82600401356001600160401b03811161030857610020936112bc604492600436918401016103fc565b84526024810135602085015201356040830152613551565b34610308575f6020366003190112610308576004356112f28161041a565b611326337f00000000000000000000000000000000000000000000000000000000000000006001600160a01b0316146134c4565b7f00000000000000000000000000000000000000000000000000000000000000006001600160a01b031690813b15610308576040516351b27a6d60e11b81526001600160a01b039091166004820152905f908290602490829084905af1801561054357611391575080f35b61002091505f9061035b565b34610308575f6020366003190112610308576004356001600160401b0381116103085736602382011215610308576113df9036906024816004013591016103c6565b6113e7614565565b7f00000000000000000000000000000000000000000000000000000000000000006001600160a01b0316803b156103085760405163a98fb35560e01b815260206004820152915f918391829084908290611445906024830190613631565b03925af1801561054357611391575080f35b34610308576060366003190112610308576004356024356114778161041a565b6044356001600160401b03811161030857611496903690600401610d2a565b60cb546001600160a01b03163381900361179657506114bc6108ac60028060fc54161490565b5a6040805160208101868152606086901b6001600160601b031916928201929092526114f581605481015b03601f19810183528261035b565b5190209161150b835f5260c960205260405f2090565b92835463ffffffff6115208263ffffffff1690565b16156117825760201c60ff1661177057835464ff0000000019166401000000001784556001600160a01b0385165f90815260ca602052604090205493600181015480951061172d575461157b92919063ffffffff1690612c68565b50936115a86001600160601b036115a26115958851612397565b516001600160601b031690565b16613655565b60208601906115d16115c56115c06115958551612397565b613694565b6001600160601b031690565b116116e0575f808080888861163b61163461162f8b8b7f8511746b73275e06971968773119b9601fc501d7bdf3824d8754042d148940e2604051806116258a82919091602081019260018060a01b03169052565b0390a25a906122fa565b6123b5565b3a90613681565b9080821084146116d85750905b6001600160a01b0381165f90815260ca6020526040902061166a8382546122fa565b90556001600160a01b03165f81815260ca60209081526040918290205491519182525f516020614cf35f395f51905f5291a260cb546116bf906116b3906001600160a01b031681565b6001600160a01b031690565b8282156116cf575bf11561054357005b506108fc6116c7565b905090611648565b61095c9061170c6115c06115956117056117006115c56115958d51612397565b613655565b9351612397565b63530f5c4560e11b5f526004919091526001600160601b0316602452604490565b61095c868661174c8260018060a01b03165f5260ca60205260405f2090565b54632e2a182f60e11b5f526001600160a01b03909216600452602452604452606490565b634e78d7f960e11b5f5260045260245ffd5b6311cb69a760e11b5f52600482905260245ffd5b632cbe419560e01b5f523360045260245260445ffd5b34610308576020366003190112610308576004355f5260c9602052606060405f206001815491015460ff6040519263ffffffff8116845260201c16151560208301526040820152f35b3461030857602036600319011261030857600435611811614565565b60cc55005b34610308575f36600319011261030857602060ff609754166040519015158152f35b6060366003190112610308576004356024356001600160401b038111610308576118669036906004016111cb565b91906044359261187d6108ac60018060fc54161490565b60408051602081018581523360601b6001600160601b031916928201929092526118aa81605481016114e7565b5190209063ffffffff6118d26118c8845f5260c960205260405f2090565b5463ffffffff1690565b166119fd57346119b5575b335f90815260ca602052604090208590541061199c577f8801fc966deb2c8f563a103c35c9e80740585c292cd97518587e6e7927e6af5593946105e39161198f6119256136b5565b4363ffffffff168082529561194e905f60208401528560408401525f5260c960205260405f2090565b90604060019163ffffffff81511663ffffffff198554161784556020810151151564ff0000000085549160201b169064ff0000000019161784550151910155565b60405194859433866136d3565b335f90815260ca6020526040902061095c90869061093f565b335f90815260ca602052604090206119ce348254612419565b9055335f81815260ca60209081526040918290205491519182525f516020614cf35f395f51905f5291a26118dd565b630c40bc4360e21b5f52600482905260245ffd5b34610308575f366003190112610308576040517f00000000000000000000000000000000000000000000000000000000000000006001600160a01b03168152602090f35b34610308575f366003190112610308576104a26109c9613719565b34610308575f36600319011261030857602060cc54604051908152f35b3461030857602036600319011261030857600435611aaa8161041a565b611ab2614565565b6001600160a01b03811615611aca576100209061497d565b60405162461bcd60e51b815260206004820152602660248201527f4f776e61626c653a206e6577206f776e657220697320746865207a65726f206160448201526564647265737360d01b6064820152608490fd5b346103085760a036600319011261030857600435611b3b8161041a565b611bb2602435611b4a8161041a565b604435611b568161041a565b60643590611b638261041a565b608435925f5495611b98611b82611b7e8960ff9060081c1690565b1590565b80988199611c2c575b8115611c0c575b50613946565b86611ba9600160ff195f5416175f55565b611bf5576139a9565b611bb857005b611bc661ff00195f54165f55565b604051600181527f7f26b83ff96e1f2b6a682f133852f6798a09c465da95921460cefb384740249890602090a1005b611c0761010061ff00195f5416175f55565b6139a9565b303b15915081611c1e575b505f611b92565b60ff1660011490505f611c17565b600160ff8216109150611b8b565b3461030857602036600319011261030857600435611c578161041a565b611c5f614565565b60cb80546001600160a01b0319166001600160a01b0392909216919091179055005b346103085760e036600319011261030857604435600435602435611ca36102f1565b916084359260a4356001600160401b03811161030857602094611ccd611d2b9236906004016103fc565b9060c43593611ce36108ac60048060fc54161490565b60405198899788976306045a9160e01b89526004890152602488015260448701526001600160601b0319166064860152608485015261010060a4850152610104840190613631565b9060c48301525f60e48301520381305afa8015610543576104a2915f91611d60575b5060405190151581529081906020820190565b611d79915060203d60201161067b5761066d818361035b565b5f611d4d565b346103085760203660031901126103085760fb5460405163755b36bd60e11b81526004803592602091839182906001600160a01b03165afa801561054357611dd8915f9161051457506001600160a01b031633146120de565b60fc54198119811603611e2257611dee8160fc55565b60405190815233907f3582d1828e26bf56bd801502bc021ac0bc8afb57c826e4986b45593c8fad389c9080602081016105e3565b60405162461bcd60e51b815260206004820152603860248201527f5061757361626c652e756e70617573653a20696e76616c696420617474656d7060448201527f7420746f2070617573652066756e6374696f6e616c69747900000000000000006064820152608490fd5b34610308575f366003190112610308576065546040516001600160a01b039091168152602090f35b34610308576020366003190112610308576004356001600160401b03811161030857366023820112156103085780600401356001600160401b038111610308573660248260051b840101116103085760246100209201613abe565b346103085760203660031901126103085760ff600435611f2f81610682565b611f37614565565b166001811b60cc541760cc557fec54a85c01b5fc7fb41be0f33eabc56f2981110da8317b9817bc7c718f6d7bfe5f80a2005b15611f7057565b60405162461bcd60e51b815260206004820152601960248201527f5061757361626c653a20696e64657820697320706175736564000000000000006044820152606490fd5b9061041797969594939291611fd16108ac60048060fc54161490565b90969092906001600160a01b0381166120875750835b63ffffffff6120016118c8835f5260c960205260405f2090565b161561207b57611b7e61201f612029925f5260c960205260405f2090565b5460201c60ff1690565b6120705760408051602081019485529081019790975260608701919091526001600160601b03191660808601526104179461206781609481016114e7565b51902091613f10565b505050505050505f90565b50505050505050505f90565b6040516120b6816114e760208201948986909160349282526001600160601b03199060601b1660208201520190565b519020611fe7565b9081602091031261030857516104178161041a565b6040513d5f823e3d90fd5b156120e557565b60405162461bcd60e51b815260206004820152602a60248201527f6d73672e73656e646572206973206e6f74207065726d697373696f6e6564206160448201526939903ab73830bab9b2b960b11b6064820152608490fd5b90816020910312610308575161041781610a02565b1561215957565b60405162461bcd60e51b815260206004820152602860248201527f6d73672e73656e646572206973206e6f74207065726d697373696f6e6564206160448201526739903830bab9b2b960c11b6064820152608490fd5b634e487b7160e01b5f52603260045260245ffd5b9060028110156121d45760051b0190565b6121af565b634e487b7160e01b5f52601260045260245ffd5b6122c96122a66122cf956122a061229985875160208901518a515160208c51015160208d016020815151915101519189519360208b0151956040519760208901998a5260208a015260408901526060880152608087015260a086015260c085015260e084015261010083015261227081610120840103601f19810183528261035b565b5190207f30644e72e131a029b85045b68181585d2833e84879b9709143e1f593f0000001900690565b8096614122565b90614168565b926122a06122bb6122b56141f0565b946142e7565b916122c4614403565b614122565b91614437565b9091565b634e487b7160e01b5f52601160045260245ffd5b5f198101919082116122f557565b6122d3565b919082039182116122f557565b90816020910312610308575190565b9081602091031261030857516001600160c01b03811681036103085790565b90816020910312610308575161041781610682565b6040519061235960208361035b565b5f808352366020840137565b9061236f82610bc8565b61237c604051918261035b565b828152809261238d601f1991610bc8565b0190602036910137565b8051156121d45760200190565b9081518110156121d4570160200190565b906201117082018092116122f557565b90602082018092116122f557565b90600182018092116122f557565b90600282018092116122f557565b90600382018092116122f557565b90600482018092116122f557565b90600582018092116122f557565b919082018092116122f557565b6001600160601b0381160361030857565b908160409103126103085760206040519161245183610320565b805161245c8161041a565b8352015161246981612426565b602082015290565b80518210156121d45760209160051b010190565b5f1981146122f55760010190565b6040516309aa152760e11b81526001600160a01b0391821660048201527f000000000000000000000000000000000000000000000000000000000000000090911690602081602481855afa90811561054357612513916020915f91612803575b506040518093819263871ef04960e01b8352600483019190602083019252565b0381855afa908115610543575f916127d4575b506001600160c01b0316908115908115612771575b5061276857612549906145bd565b5f91907f00000000000000000000000000000000000000000000000000000000000000006001600160a01b031690835b8151851015612625576125ce60206125ab6125a561259789876123a4565b516001600160f81b03191690565b60f81c90565b604051633ca5a5f560e01b815260ff909116600482015291829081906024820190565b0381875afa8015610543576001926125ed925f926125f5575b50612419565b940193612579565b61261791925060203d811161261e575b61260f818361035b565b810190612307565b905f6125e7565b503d612605565b612630919450612365565b925f905f5b81518110156127625761264e6125a561259783856123a4565b604051633ca5a5f560e01b815260ff8216600482015290602082602481895afa918215610543575f92612742575b50905f915b81831061269357505050600101612635565b604080516356e4026d60e11b815260ff83166004820152602481018590529396929391929190816044818b5afa918215610543576127068b6126f7836126f16116b360019861270b985f91612714575b50516001600160a01b031690565b92612471565b6001600160a01b039091169052565b612485565b95019190612681565b612735915060403d811161273b575b61272d818361035b565b810190612437565b5f6126e3565b503d612723565b61275b91925060203d811161261e5761260f818361035b565b905f61267c565b50505050565b5061041761234a565b604051639aa1653d60e01b81529150602090829060049082905afa80156105435760ff915f916127a5575b5016155f61253b565b6127c7915060203d6020116127cd575b6127bf818361035b565b810190612335565b5f61279c565b503d6127b5565b6127f6915060203d6020116127fc575b6127ee818361035b565b810190612316565b5f612526565b503d6127e4565b61281a9150823d841161261e5761260f818361035b565b5f6124f3565b6040519061282d82610320565b60606020838281520152565b6040519061284860408361035b565b600182525f6020830152565b1561285b57565b60405162461bcd60e51b815260206004820152604160248201525f516020614d135f395f51905f5260448201527f7265733a20696e7075742071756f72756d206c656e677468206d69736d6174636064820152600d60fb1b608482015260a490fd5b156128c457565b60a460405162461bcd60e51b815260206004820152604460248201525f516020614d135f395f51905f5260448201527f7265733a20696e707574206e6f6e7369676e6572206c656e677468206d69736d6064820152630c2e8c6d60e31b6084820152fd5b1561292f57565b60405162461bcd60e51b815260206004820152603c60248201525f516020614d135f395f51905f5260448201527f7265733a20696e76616c6964207265666572656e636520626c6f636b000000006064820152608490fd5b1561298e57565b608460405162461bcd60e51b815260206004820152604060248201525f516020614d135f395f51905f5260448201527f7265733a206e6f6e5369676e65725075626b657973206e6f7420736f727465646064820152fd5b156129ec57565b60405162461bcd60e51b815260206004820152606660248201525f516020614d135f395f51905f5260448201527f7265733a205374616b6552656769737472792075706461746573206d7573742060648201527f62652077697468696e207769746864726177616c44656c6179426c6f636b732060848201526577696e646f7760d01b60a482015260c490fd5b90816020910312610308575167ffffffffffffffff19811681036103085790565b15612aa157565b60405162461bcd60e51b815260206004820152606160248201525f516020614d135f395f51905f5260448201527f7265733a2071756f72756d41706b206861736820696e2073746f72616765206460648201527f6f6573206e6f74206d617463682070726f76696465642071756f72756d2061706084820152606b60f81b60a482015260c490fd5b90816020910312610308575161041781612426565b906001600160601b03809116911603906001600160601b0382116122f557565b15612b6557565b60405162461bcd60e51b815260206004820152604360248201525f516020614d135f395f51905f5260448201527f7265733a2070616972696e6720707265636f6d70696c652063616c6c206661696064820152621b195960ea1b608482015260a490fd5b15612bd057565b60405162461bcd60e51b815260206004820152603960248201525f516020614d135f395f51905f5260448201527f7265733a207369676e617475726520697320696e76616c6964000000000000006064820152608490fd5b60049163ffffffff60e01b9060e01b1681520160208251919201905f5b818110612c525750505090565b8251845260209384019390920191600101612c45565b9190612c72612820565b50612c7b612839565b5160408301515114806134ae575b80613498575b8061347d575b612c9e90612854565b612cb0602083015151835151146128bd565b612cc763ffffffff431663ffffffff831610612928565b612ccf61038e565b5f81525f602082015290612ce1612820565b94612cf3612ced612839565b51612365565b6020870152612d03612ced612839565b8652612d0d612820565b90612d1c602086015151612365565b8252612d2c602086015151612365565b6020830152612d39612839565b604051639aa1653d60e01b8152906020826004817f00000000000000000000000000000000000000000000000000000000000000006001600160a01b03165afa90811561054357612d91925f9261345c575b5061475a565b965f945b60208701518051871015612f0c57612db087612dc392612471565b5180515f526020015160205260405f2090565b612dd1876020870151612471565b5285612ed7575b612de6866020860151612471565b51602086612e02612df88a8c51612471565b5163ffffffff1690565b6040516304ec635160e01b8152600481019490945263ffffffff9182166024850152166044830152816064816001600160a01b037f0000000000000000000000000000000000000000000000000000000000000000165afa91821561054357600192612eb1925f91612eb9575b50838060c01b0316612e82898851612471565b526122a0612e948960208c0151612471565b51612eab8d612ea48c8b51612471565b51166147e1565b90614812565b950194612d95565b612ed1915060203d81116127fc576127ee818361035b565b5f612e6f565b612f07612ee8876020870151612471565b51612f006020870151612efa8a6122e7565b90612471565b5110612987565b612dd8565b50909750612f1f919296959394506148f8565b90612f2c60975460ff1690565b8015613451576040516318891fd760e31b81526020816004817f00000000000000000000000000000000000000000000000000000000000000006001600160a01b03165afa908115610543575f91613432575b5095909492955b5f965b612f91612839565b518810156133df578661332b575b612fc1612fb3612db08a60408a0151612471565b67ffffffffffffffff191690565b90612fd96125a56125978b612fd4612839565b6123a4565b602087612fed612df88d60a08d0151612471565b604051631a2f32ab60e21b815260ff94909416600485015263ffffffff9182166024850152166044830152816064816001600160a01b037f0000000000000000000000000000000000000000000000000000000000000000165afa9283156105435761308993613074925f916132fd575b5067ffffffffffffffff19918216911614612a9a565b613082896040890151612471565b5190614168565b9061309c6125a56125978a612fd4612839565b6020866130b0612df88c60c08c0151612471565b604051636414a62b60e11b815260ff94909416600485015263ffffffff9182166024850152166044830152816064816001600160a01b037f0000000000000000000000000000000000000000000000000000000000000000165afa8015610543576115958a60208e61314661314d95613158975f916132e0575b506131388585850151612471565b906001600160601b03169052565b0151612471565b6131388a8d51612471565b5f965f5b6020880151518110156132d1578a8a613199613179848451612471565b5161318c6125a561259785612fd4612839565b60ff161c60019081161490565b6131a8575b505060010161315c565b888a9261322d6131ed612df8879f6131e78760e06131de849c60206131d66125a5612597839f612fd4612839565b9a0151612471565b519a0151612471565b51612471565b60405163795f4a5760e11b815260ff909316600484015263ffffffff93841660248401526044830195909552919093166064840152829081906084820190565b03817f00000000000000000000000000000000000000000000000000000000000000006001600160a01b03165afa918215610543576132908e6001948e86955f9261329b575b506126f16131389293519361328b6115958487612471565b612b3e565b019890508a8a61319e565b61313892506132c36126f19160203d81116132ca575b6132bb818361035b565b810190612b29565b9250613273565b503d6132b1565b50600190980197965090612f89565b6132f79150843d81116132ca576132bb818361035b565b5f61312a565b61331e915060203d8111613324575b613316818361035b565b810190612a79565b5f61305e565b503d61330c565b61336560206133426125a56125978c612fd4612839565b60405163124d062160e11b815260ff909116600482015291829081906024820190565b03817f00000000000000000000000000000000000000000000000000000000000000006001600160a01b03165afa8015610543576133bc915f916133c1575b506133b68463ffffffff891692612419565b116129e5565b612f9f565b6133d9915060203d811161261e5761260f818361035b565b5f6133a4565b60209497506114e7965061341491506134199261342c9661340d929a959a60806060830151920151926121ed565b9190612b5e565b612bc9565b0151604051928391602083019586612c28565b51902090565b61344b915060203d60201161261e5761260f818361035b565b5f612f7f565b5f9590949295612f86565b61347691925060203d6020116127cd576127bf818361035b565b905f612d8b565b50612c9e613489612839565b5160e084015151149050612c95565b506134a1612839565b5160c08301515114612c8f565b506134b7612839565b5160a08301515114612c89565b156134cb57565b60405162461bcd60e51b815260206004820152605260248201527f536572766963654d616e61676572426173652e6f6e6c7952656769737472794360448201527f6f6f7264696e61746f723a2063616c6c6572206973206e6f742074686520726560648201527133b4b9ba393c9031b7b7b93234b730ba37b960711b608482015260a490fd5b613585337f00000000000000000000000000000000000000000000000000000000000000006001600160a01b0316146134c4565b7f00000000000000000000000000000000000000000000000000000000000000006001600160a01b031691823b15610308575f928392604051948580948193639926ee7d60e01b835260018060a01b031660048301526040602483015260406135fa82516060604486015260a4850190613631565b91602081015160648501520151608483015203925af180156105435761361d5750565b8061362b5f61038c9361035b565b80610b72565b805180835260209291819084018484015e5f828201840152601f01601f1916010190565b906064820291808304606414901517156122f557565b906006820291808304600614901517156122f557565b818102929181159184041417156122f557565b6001600160601b036043911602906001600160601b0382169182036122f557565b604051906136c282610340565b5f6040838281528260208201520152565b95949360609363ffffffff60a0948394600180881b03168a5216602089015260806040890152816080890152838801375f828288010152601f8019910116850101930152565b604051639aa1653d60e01b81527f00000000000000000000000000000000000000000000000000000000000000006001600160a01b031690602081600481855afa80156105435760ff915f91613927575b5016801561391d577f00000000000000000000000000000000000000000000000000000000000000006001600160a01b0316905f9081905b8083106138d957506137b49150612365565b925f905f5b604051639aa1653d60e01b8152602081600481895afa80156105435760ff915f916138bb575b50168110156138b457604051633ca5a5f560e01b815260ff821660048201819052602082602481895afa918215610543575f92613894575b50905f915b81831061382e575050506001016137b9565b604080516356e4026d60e11b815260ff83166004820152602481018590529396929391929190816044818b5afa918215610543576127068b6126f7836126f16116b360019861388b985f916127145750516001600160a01b031690565b9501919061381c565b6138ad91925060203d811161261e5761260f818361035b565b905f613817565b5092505050565b6138d3915060203d81116127cd576127bf818361035b565b5f6137df565b604051633ca5a5f560e01b815260ff84166004820152909190602081602481885afa801561054357600192613914925f926125f55750612419565b920191906137a2565b505061041761234a565b613940915060203d6020116127cd576127bf818361035b565b5f61376a565b1561394d57565b60405162461bcd60e51b815260206004820152602e60248201527f496e697469616c697a61626c653a20636f6e747261637420697320616c72656160448201526d191e481a5b9a5d1a585b1a5e995960921b6064820152608490fd5b90939291906001600160a01b03811615613a89576001600160a01b03851615613a50576001600160a01b03821615613a1657613a0c613a11926139ef61038c97846149c5565b60018060a01b03166001600160601b0360a01b60cb54161760cb55565b61497d565b614a38565b604051630b0f5aa160e11b815260206004820152601160248201527030b634b3b732b220b3b3b932b3b0ba37b960791b6044820152606490fd5b604051630b0f5aa160e11b815260206004820152601060248201526f3932bbb0b93239a4b734ba34b0ba37b960811b6044820152606490fd5b604051630b0f5aa160e11b815260206004820152600c60248201526b34b734ba34b0b627bbb732b960a11b6044820152606490fd5b6065546001600160a01b03163303613cd2577f00000000000000000000000000000000000000000000000000000000000000006001600160a01b0316915f5b818110613b405750823b1561030857613b2f925f928360405180968195829463fce36c7d60e01b845260048401613de6565b03925af180156105435761361d5750565b5f6020613b9b613b5e6116b383613b5887898b613d52565b01613d74565b6040613b6b86888a613d52565b6040516323b872dd60e01b8152336004820152306024820152910135604482015293849283919082906064820190565b03925af1801561054357613cb6575b50613bbe6116b36020613b58848688613d52565b604051636eb1769f60e11b81523060048201526001600160a01b03861660248201529190602090839060449082905afa801561054357613c616020915f948591613c99575b50613c2e613c196116b385613b58888b8d613d52565b916040613c27878a8c613d52565b0135612419565b60405163095ea7b360e01b81526001600160a01b038a166004820152602481019190915294859283919082906044820190565b03925af191821561054357600192613c7b575b5001613afd565b613c929060203d811161067b5761066d818361035b565b505f613c74565b613cb09150833d811161261e5761260f818361035b565b5f613c03565b613ccd9060203d811161067b5761066d818361035b565b613baa565b60405162461bcd60e51b815260206004820152604c60248201527f536572766963654d616e61676572426173652e6f6e6c7952657761726473496e60448201527f69746961746f723a2063616c6c6572206973206e6f742074686520726577617260648201526b32399034b734ba34b0ba37b960a11b608482015260a490fd5b91908110156121d45760051b81013590609e1981360301821215610308570190565b356104178161041a565b916020908281520191905f5b818110613d975750505090565b9091926040806001928635613dab8161041a565b848060a01b031681526001600160601b036020880135613dca81612426565b166020820152019401929101613d8a565b359061038c8261041a565b9180602084016020855252604083019060408160051b85010193835f91609e1982360301905b848410613e1d575050505050505090565b90919293949596603f19828203018752873583811215610308578401908135601e198336030181121561030857820191602083359301906001600160401b038411610308578360061b3603821361030857613ee6836080613edb81613e916020989760019a60a08b9a5260a0870191613d7e565b95613eaf613ea0898301613ddb565b6001600160a01b0316868a0152565b60408101356040860152613ed5613ec860608301610bb7565b63ffffffff166060870152565b01610bb7565b63ffffffff16910152565b99019701959401929190613e0c565b613f0660208060fc54161415611f69565b61038c34336146f7565b93909291601f855116613f775791906020925b85518411613f6e5760018316613f54575f5282850151602052613f4d60405f209260011c936123c5565b9291613f23565b838601515f52602052613f4d60405f209260011c936123c5565b92509350501490565b60405162461bcd60e51b815260206004820152604b60248201527f4d65726b6c652e70726f63657373496e636c7573696f6e50726f6f664b65636360448201527f616b3a2070726f6f66206c656e6774682073686f756c642062652061206d756c60648201526a3a34b836329037b310199960a91b608482015260a490fd5b6001600160a01b038116156140615760fb54604080516001600160a01b03928316815291831660208301527f6e9fcd539896fca60e8b0f01dd580233e48a6b0f7df013b89ba7f565869acdb691a160018060a01b03166001600160601b0360a01b60fb54161760fb55565b60405162461bcd60e51b815260206004820152604960248201527f5061757361626c652e5f73657450617573657252656769737472793a206e657760448201527f50617573657252656769737472792063616e6e6f7420626520746865207a65726064820152686f206164647265737360b81b608482015260a490fd5b604051906140eb82610320565b5f6020838281520152565b60405190610180614107818461035b565b368337565b6040519061411b60208361035b565b6020368337565b919060409060606141316140de565b9485926020855192614143858561035b565b8436853780518452015160208301528482015260076107cf195a01fa1561416657565bfe5b6020929160806040926141796140de565b9586938186519361418a868661035b565b85368637805185520151828401528051868401520151606082015260066107cf195a01fa801561416657156141bb57565b60405162461bcd60e51b815260206004820152600d60248201526c1958cb5859190b59985a5b1959609a1b6044820152606490fd5b6040516141fc81610320565b604090815161420b838261035b565b8236823781526020825191614220848461035b565b8336843701528051614232828261035b565b7f198e9393920d483a7260bfb731fb5d25f1aa493335a9e71297e485b7aef312c281527f1800deef121f1e76426a00665e5c4479674322d4f75edadd46debd5cd992f6ed6020820152815190614288838361035b565b7f275dc4a288d1afb3cbb1ac09187524c7db36395df7be3b99e673b13a075a65ec82527f1d9befcd05a5323e6da4d435f3b617cdb3af83285c2df711ef39c01571827f9d60208301526142dd8351938461035b565b8252602082015290565b5f516020614cd35f395f51905f52906142fe6140de565b505f919006602060c0835b6143fe575f935f516020614cd35f395f51905f5260038186818180090908604051614334858261035b565b84368237848185604051614348828261035b565b813682378381528360208201528360408201528560608201527f0c19139cb84c680a6e14116da060561765e05aa45a1c72a34f082305b61f3f5260808201525f516020614cd35f395f51905f5260a082015260056107cf195a01fa8015614166576143b290614c86565b51916143fe575f516020614cd35f395f51905f52828009146143e957505f516020614cd35f395f51905f5260015f94089293614309565b929350506143f561038e565b92835282015290565b6121d9565b61440b6140de565b5060405161441881610320565b600181526002602082015290565b90600c8110156121d45760051b0190565b93929091614445604061039d565b9485526020850152614457604061039d565b91825260208201526144676140f6565b925f5b600281106144945750505060206101809261448361410c565b93849160086201d4c0fa9151151590565b806144a060019261366b565b6144aa82856121c3565b51516144b68289614426565b5260206144c383866121c3565b5101516144d86144d2836123d3565b89614426565b526144e382866121c3565b5151516144f26144d2836123e1565b5261450861450083876121c3565b515160200190565b516145156144d2836123ef565b52602061452283876121c3565b510151516145326144d2836123fd565b5261455e6145586145516020614548868a6121c3565b51015160200190565b519261240b565b88614426565b520161446a565b6033546001600160a01b0316330361457957565b606460405162461bcd60e51b815260206004820152602060248201527f4f776e61626c653a2063616c6c6572206973206e6f7420746865206f776e65726044820152fd5b61ffff6145c9826147e1565b166145d3816103ab565b906145e1604051928361035b565b8082526145f0601f19916103ab565b013660208301375f5f5b8251821080614650575b15614649576001811b8416614622575b61461d90612485565b6145fa565b90600161461d9160ff60f81b8460f81b165f1a61463f82876123a4565b5301919050614614565b5050905090565b506101008110614604565b606554604080516001600160a01b038084168252841660208201529192917fe11cddf1816a43318ca175bbc52cd0185436e9cbead7c83acc54a73e461717e39190a16001600160a01b03166001600160a01b03199190911617606555565b60207f40e4ed880a29e0f6ddce307457fb75cddf4feef7d3ecb0301bfdf4976a0e2dfc91151560ff196097541660ff821617609755604051908152a1565b8115614747576001600160a01b03165f81815260ca602052604090208054919282019182106122f55755805f5260ca6020525f516020614cf35f395f51905f52602060405f2054604051908152a2565b50632097692160e11b5f5260045260245ffd5b90600161476860ff93614b9f565b928392161b11156147765790565b60405162461bcd60e51b815260206004820152603f60248201527f4269746d61705574696c732e6f72646572656442797465734172726179546f4260448201527f69746d61703a206269746d61702065786365656473206d61782076616c7565006064820152608490fd5b805f915b6147ed575090565b5f1981018181116122f55761ffff9116911661ffff81146122f55760010190806147e5565b9061481b6140de565b5061ffff8116906102008210156148c057600182146148bb5761483c61038e565b5f81525f602082015292906001905f925b61ffff831685101561486157505050505090565b600161ffff831660ff86161c81161461489b575b60016148916148868360ff94614168565b9460011b61fffe1690565b940116929161484d565b9460016148916148866148b08960ff95614168565b989350505050614875565b505090565b60405162461bcd60e51b815260206004820152601060248201526f7363616c61722d746f6f2d6c6172676560801b6044820152606490fd5b6149006140de565b50805190811580614971575b1561492d57505060405161492160408261035b565b5f81525f602082015290565b60205f516020614cd35f395f51905f52910151065f516020614cd35f395f51905f52035f516020614cd35f395f51905f5281116122f557604051916142dd83610320565b5060208101511561490c565b603380546001600160a01b039283166001600160a01b0319821681179092559091167f8be0079c531659141344cd1fd0a4f28419497f9722a3daafe3b4186f6b6457e05f80a3565b9060ff5f5460081c16156149df576109fd61038c9261497d565b60405162461bcd60e51b815260206004820152602b60248201527f496e697469616c697a61626c653a20636f6e7472616374206973206e6f74206960448201526a6e697469616c697a696e6760a81b6064820152608490fd5b60fb546001600160a01b03161580614b0b575b15614a905781614a5d61038c9360fc55565b60405190815233907fab40a374bc51de372200a8bc981af8c9ecdc08dfdaef0bb6e09f88f3c616ef3d90602090a2613ff6565b60405162461bcd60e51b815260206004820152604760248201527f5061757361626c652e5f696e697469616c697a655061757365723a205f696e6960448201527f7469616c697a6550617573657228292063616e206f6e6c792062652063616c6c6064820152666564206f6e636560c81b608482015260a490fd5b506001600160a01b0381161515614a4b565b15614b2457565b60405162461bcd60e51b815260206004820152604760248201527f4269746d61705574696c732e6f72646572656442797465734172726179546f4260448201527f69746d61703a206f72646572656442797465734172726179206973206e6f74206064820152661bdc99195c995960ca1b608482015260a490fd5b90610100825111614c0f57815115614c0a57614bcd614bc36125a561259785612397565b60ff600191161b90565b6001905b8351821015614c0557600190614bf0614bc36125a561259786896123a4565b90614bfc818311614b1d565b17910190614bd1565b925050565b5f9150565b60a460405162461bcd60e51b815260206004820152604460248201527f4269746d61705574696c732e6f72646572656442797465734172726179546f4260448201527f69746d61703a206f7264657265644279746573417272617920697320746f6f206064820152636c6f6e6760e01b6084820152fd5b15614c8d57565b60405162461bcd60e51b815260206004820152601a60248201527f424e3235342e6578704d6f643a2063616c6c206661696c7572650000000000006044820152606490fdfe30644e72e131a029b85045b68181585d97816a916871ca8d3c208c16d87cfd470ea46f246ccfc58f7a93aa09bc6245a6818e97b1a160d186afe78993a3b194a0424c535369676e6174757265436865636b65722e636865636b5369676e617475a26469706673582212203f93810e136abc668d4b6e863312064f727ebbe3f1a248a9593f47836096adac64736f6c634300081b0033","linkReferences":{}},"methodIdentifiers":{"alignedAggregator()":"4a5bf632","avsDirectory()":"6b3aa72e","balanceOf(address)":"70a08231","batchersBalances(address)":"f474b520","batchesState(bytes32)":"b099627e","blsApkRegistry()":"5df45946","checkPublicInput(bytes,bytes32)":"95c6d604","checkSignatures(bytes32,uint32,(uint32[],(uint256,uint256)[],(uint256,uint256)[],(uint256[2],uint256[2]),(uint256,uint256),uint32[],uint32[],uint32[][]))":"4ae07c37","createAVSRewardsSubmission(((address,uint96)[],address,uint256,uint32,uint32)[])":"fce36c7d","createNewTask(bytes32,string,uint256)":"d66eaabd","delegation()":"df5cf723","depositToBatcher(address)":"4223d551","deregisterOperatorFromAVS(address)":"a364f4da","disableVerifier(uint8)":"fd4c3b7c","disabledVerifiers()":"ea5ca34b","enableVerifier(uint8)":"18daeeaf","getOperatorRestakedStrategies(address)":"33cfb7b7","getRestakeableStrategies()":"e481af9d","initialize(address,address,address,address,uint256)":"f7013ef6","isVerifierDisabled(uint8)":"137122b5","owner()":"8da5cb5b","pause(uint256)":"136439dd","pauseAll()":"595c6a67","paused()":"5c975abb","paused(uint8)":"5ac86ab7","pauserRegistry()":"886f1195","registerOperatorToAVS(address,(bytes,bytes32,uint256))":"9926ee7d","registryCoordinator()":"6d14a987","renounceOwnership()":"715018a6","respondToTaskV2(bytes32,address,(uint32[],(uint256,uint256)[],(uint256,uint256)[],(uint256[2],uint256[2]),(uint256,uint256),uint32[],uint32[],uint32[][]))":"ab21739a","rewardsInitiator()":"fc299dee","setAggregator(address)":"f9120af6","setDisabledVerifiers(uint256)":"b753645e","setPauserRegistry(address)":"10d67a2f","setRewardsInitiator(address)":"3bc28c8c","setStaleStakesForbidden(bool)":"416c7e5e","stakeRegistry()":"68304835","staleStakesForbidden()":"b98d0908","transferOwnership(address)":"f2fde38b","trySignatureAndApkVerification(bytes32,(uint256,uint256),(uint256[2],uint256[2]),(uint256,uint256))":"171f1d5b","unpause(uint256)":"fabc1cbc","updateAVSMetadataURI(string)":"a98fb355","verifyBatchInclusion(bytes32,bytes32,bytes32,bytes20,bytes32,bytes,uint256)":"fa534dc0","verifyBatchInclusion(bytes32,bytes32,bytes32,bytes20,bytes32,bytes,uint256,address)":"06045a91","withdraw(uint256)":"2e1a7d4d"},"id":74}